:100000000C945C010C948D010C948D010C948D0169
:100010000C948D010C948D010C948D010C948D0128
:100020000C948D010C948D010C948D010C948D0118
:100030000C948D010C948D010C948D010C948D0108
:100040000C948D010C948D010C948D010C948D01F8
:100050000C948D010C948D010C948D010C94CE08A0
:100060000C948D010C9442090C9418090C948D0188
:100070000C948D010C948D010C948D010C948D01C8
:100080000C948D010C948D010C948D010C948D01B8
:100090000C948D010C948D010C948D010C948D01A8
:1000A0000C948D010C948D010C948D010C948D0198
:1000B0000C948D010C948D010C948D010C948D0188
:1000C0000C948D010C948D010C948D010C948D0178
:1000D0000C948D010C948D010C948D010C948D0168
:1000E0000C948D010C946E030C94EA030C94B804E8
:1000F0000C9464050C9478090C9472050C944204D9
:100100000C94B9030C9430020C9426020C94040253
:100110000C9463040C94DE010C943E050C942202B2
:100120000C949C030C945D050C94E8030C949704C8
:100130000C94EA040C94F5010C9498020C94E203DC
:100140000C9400050C943A020C94E0030C94760293
:100150000C946B050C9418020C9414020C941D035F
:100160000C940E020C94EC030C9434020C940A02CE
:100170000C948A020C94DE030C9467020C9487059D
:100180000C94E6030C9479050C94E4030C94550547
:100190000C941C020C942A020C94D0020C94FD01C5
:1001A0000C9401020C94E3010C94F9010C94800569
:1001B00000000A0B02090C0D0E08070304010000E1
:1001C000000000000000000000000000000000002F
:1001D00000000000000000000000000012111000EC
:1001E000000000000000000000000000000000000F
:1001F00000000000000000002200250028002B0065
:100200002E003100340002010000050108010B013D
:1002100000002100240027002A002D0030003300B8
:1002200001010000040107010A0105050505070594
:1002300008080808020202020A0A08080404040462
:10024000010101010101010103030303030303038E
:10025000040707070C0C0C0C0C0C0C0C020202021D
:1002600006060606060606060B0B0B0B0B0B0B0B06
:1002700001021020200808102040102040800201B8
:10028000020108040201010204081020408080409D
:10029000201008040201800402018040201008049C
:1002A000020108040201010204081020408001023A
:1002B000040810204080780911241FBECFEFD1E23E
:1002C000DEBFCDBF00E00CBF12E0A0E0B2E0ECE882
:1002D000FCE100E00BBF02C007900D92AC32B10709
:1002E000D9F724E0ACE2B2E001C01D92A632B20719
:1002F000E1F711E0CCE5D1E000E006C0219701096B
:10030000802FFE010E94810BCB35D10780E00807CA
:10031000A9F70E94C2090C94440E0C94000090E0CE
:10032000FC01E059FD4F2491865D9D4FFC018491B5
:10033000882399F090E0880F991FFC01E05FFD4F42
:10034000A591B491FC01EA50FE4F859194918FB72D
:10035000F894EC91E22BEC938FBF0895282F30E0B6
:10036000F901E055FE4F9491F901E059FD4F449198
:10037000265D3D4FF9012491222309F435C09923CC
:1003800011F191509231F8F4E92FF0E08827E4530D
:10039000FE4F8F4F0C94810BFD010102DE01F50130
:1003A000F901E30104020A020E02140218021C02FF
:1003B00022022602E3012A023002340280918000E8
:1003C0008F7780938000E22FF0E0EE0FFF1FEA505E
:1003D000FE4FA591B4918FB7F894EC91611148C08C
:1003E00040954E234C938FBF0895809180008F7D60
:1003F000E8CF80918000877FE4CF84B58F7784BD7C
:10040000E2CF84B58F7DFBCF8091B0008F77809352
:10041000B000D9CF8091B0008F7DF9CF809190004E
:100420008F7780939000CFCF809190008F7DF9CF10
:1004300080919000877FF5CF8091A0008F77809387
:10044000A000C1CF8091A0008F7DF9CF8091A00046
:10045000877FF5CF809120018F7780932001B3CFE4
:10046000809120018F7DF9CF80912001877FF5CF8A
:100470004E2BB8CFAF92BF92CF92DF92EF92FF9206
:100480000F931F93CF93DF936C017B018B01040FBC
:10049000151FEB015E01AE18BF08C017D10759F058
:1004A0006991D601ED91FC910190F081E02DC6019A
:1004B0001995892B79F7C501DF91CF911F910F9184
:1004C000FF90EF90DF90CF90BF90AF900895FC0128
:1004D000538D448D252F30E0842F90E0821B930BA9
:1004E000541710F0CF96089501970895FC01918D4F
:1004F000828D981761F0A28DAE0FBF2FB11D5D9652
:100500008C91928D9F5F9F73928F90E008958FEFF3
:100510009FEF0895FC01918D828D981731F0828DA7
:10052000E80FF11D858D90E008958FEF9FEF0895FE
:10053000FC01918D228D892F90E0805C9F4F821B62
:1005400091098F739927089585E392E00E9498029C
:1005500021E0892B09F420E0822F0895FC01A48D6D
:10056000A80FB92FB11DA35ABF4F2C91848D90E0D5
:1005700001968F739927848FA689B7892C93A089B8
:10058000B1898C91837080648C93938D848D981342
:1005900006C00288F389E02D80818F7D80830895D5
:1005A000EF92FF920F931F93CF93DF93EC0181E0C3
:1005B000888F9B8D8C8D98131AC0E889F98980816A
:1005C00085FF15C09FB7F894EE89FF896083E8899D
:1005D000F98980818370806480839FBF81E090E08F
:1005E000DF91CF911F910F91FF90EF900895F62E1C
:1005F0000B8D10E00F5F1F4F0F731127E02E8C8DB6
:100600008E110CC00FB607FCFACFE889F9898081FA
:1006100085FFF5CFCE010E94AE02F1CFEB8DEC0F3E
:10062000FD2FF11DE35AFF4FF0829FB7F8940B8F17
:10063000EA89FB8980818062CFCFCF93DF93EC0181
:10064000888D8823B9F0AA89BB89E889F9898C91BA
:1006500085FD03C0808186FD0DC00FB607FCF7CF76
:100660008C9185FFF2CF808185FFEDCFCE010E9476
:10067000AE02E9CFDF91CF91089580E090E0892B21
:1006800029F00E94A40281110E94000080E090E005
:10069000892B49F080E090E0892B29F00E9400002E
:1006A00081110E94000080E090E0892B49F080E0F9
:1006B00090E0892B29F00E94000081110E94000027
:1006C00080E090E0892B49F080E090E0892B29F0D0
:1006D0000E94000081110C9400000895CF93DF93D5
:1006E000FC012381222329F1EC0184810E948F01E6
:1006F0008D810E948F018B81843011F0883099F4B4
:100700008E810E948F018F810E948F018FA58F3F64
:1007100081F00E948F016EA581E068278FA5DF918F
:10072000CF910C94AE01833011F0863079F78E8131
:10073000EBCFDF91CF910895CF93DF93FC0123811D
:100740002223A1F0EC010190F081E02D0480F581DD
:10075000E02D60E019958FA58F3F41F00E948F0139
:100760006EA58FA5DF91CF910C94AE01DF91CF9153
:100770000895DC01ED91FC9111972481358147703A
:10078000552766277727415051096109710947307C
:1007900051056105710570F4FA018827ED52FC4F8F
:1007A0008F4F0C94810BDE03E003E203E403E603C6
:1007B000E803EA0361E0CD01F901199465E0FBCF9C
:1007C00064E0F9CF66E0F7CF62E0F5CF6AE0F3CFFF
:1007D00068E0F1CF69E0EFCFCF93DF93EC01CB017D
:1007E000BA0126E030E040E050E00E94620B623047
:1007F00071058105910589F16CF46115710581051B
:100800009105D1F06130710581059105F9F0DF9115
:10081000CF910895643071058105910561F124F14E
:10082000653071058105910591F7E881F9810480B2
:10083000F581E02D66E006C0E881F9810480F5814C
:10084000E02D64E0CE01DF91CF911994E881F98128
:100850000480F581E02D65E0F5CFE881F981048021
:10086000F581E02D61E0EECFE881F9810480F5812A
:10087000E02D63E0E7CFE881F9810480F581E02D88
:1008800062E0E0CFDC01ED91FC910480F581E02D88
:10089000437055276627772742305105610571055A
:1008A00071F0433051056105710559F04130510532
:1008B0006105710511F065E0199466E0FDCF6AE00D
:1008C000FBCF69E0F9CFCF93DF93EC01CB01BA0105
:1008D00023E030E040E050E00E94620B613071059F
:1008E0008105910599F06230710581059105A9F0A6
:1008F000672B682B692BC1F4E881F9810480F581AD
:10090000E02D64E0CE01DF91CF911994E881F98167
:100910000480F581E02D61E0F5CFE881F981048064
:10092000F581E02D62E0EECFDF91CF910895DC01FB
:10093000ED91FC910480F581E02D437055276627E9
:100940007727423051056105710571F0433051053B
:100950006105710559F0413051056105710511F0CE
:1009600062E0199463E0FDCF61E0FBCF60E0F9CF76
:10097000CF93DF93EC01E881F9810480F581E02DCC
:100980008A8160E0811162E0CE011995E881F981E8
:100990000480F581E02D8A8161E0811163E0CE0160
:1009A00019958CA59DA58230910538F0880F991F67
:1009B000880F991F05970197F1F7E881F981048065
:1009C000F581E02D8A8160E0811162E0CE01DF9146
:1009D000CF911994CF93DF93EC0120E030E0A9018F
:1009E0006C897D898E899F890E94770D18162CF459
:1009F000E8A9F9A9DF91CF911994EAA9FBA9FACF47
:100A0000CF92DF92EF92FF920F931F93CF93DF93DA
:100A1000DC011396CC91C43039F0C83059F1C330A1
:100A200019F0C63049F1C2E08C010C5F1F4FF12C68
:100A3000E12CC62ED12CD1E0F8016481C6010E2C28
:100A400002C0959587950A94E2F780FD6D270F5FA8
:100A50001F4F80810E94AE01BFEFEB1AFB0AEC161C
:100A600058F3DF91CF911F910F91FF90EF90DF909E
:100A7000CF900895C4E0D8CFC3E0D6CFDC01139661
:100A8000EC911397E93008F042C0F0E08827E45B6E
:100A9000FA4F8F4F0C94810B55055D0564056B056E
:100AA00072058705790587058005ED91FC91119701
:100AB0000084F185E02DCD011994ED91FC91119701
:100AC0000284F385E02DF7CFED91FC91119704841A
:100AD000F585E02DF0CFED91FC9111970684F78517
:100AE000E02DE9CFED91FC9111970088F189E02D7F
:100AF000E2CFED91FC9111970288F389E02DDBCFD5
:100B0000ED91FC9111970488F589E02DD4CF0895DB
:100B10004F925F926F927F928F929F92AF92BF920D
:100B2000CF92DF92EF92FF920F931F93CF93DF93B9
:100B3000EC01C888D988EA88FB888C859D85AE85BC
:100B4000BF85C81AD90AEA0AFB0A6C897D898E8991
:100B50009F899B01AC010E947C0D4B015C016C8D57
:100B60007D8D8E8D9F8D9B01AC010E94AC0B9B01F6
:100B7000AC01C501B4010E941D0C0E948F0CC11470
:100B8000D104E104F10409F0B1C0623071058105BE
:100B900091050CF0CBC01CA21DA21EA21FA21C8A94
:100BA0001D8A1E8A1F8A1CAA1DAA1EAA1FAADF91BF
:100BB000CF911F910F91FF90EF90DF90CF90BF905A
:100BC000AF909F908F907F906F905F904F9008951F
:100BD0001016110612061306B4F46C157D058E0569
:100BE0009F051CF42A812111A1C09B01AC0188271B
:100BF0009927DC01821B930BA40BB50B8CAB9DAB2F
:100C0000AEABBFAB93C0011511052105310509F449
:100C10008DC06C157D058E059F050CF087C08A81FF
:100C2000882309F483C030952095109501951F4FB6
:100C30002F4F3F4F0CAB1DAB2EAB3FAB77C0011519
:100C400011052105310509F471C088249924540146
:100C50008C189D08AE08BF08681579058A059B05A4
:100C60000CF064C08A81811161C0DDCFCCACDDACF9
:100C7000EEACFFACA7019601C701B6010E94AC0B18
:100C80002B013C01C501B4010E94C70C20E030E0FB
:100C900040E850E40E947C0D20E030E040E85FE353
:100CA0000E94AC0B9B01AC01C301B2010E941D0C60
:100CB0009B01AC01C701B6010E94AB0B3B016C016B
:100CC000FE01E05CFF4FE080F1800281138197011B
:100CD000A8010E94770D181614F473018601C7014C
:100CE000D8018CAF9DAFAEAFBFAF3AC00CA91DA964
:100CF0002EA93FA91C141D041E041F040CF468CF68
:100D000010161106120613060CF099CF00271127B2
:100D100098010C191D092E093F09601771078207F8
:100D200093070CF062CF2A8121115FCF8CA89DA878
:100D3000AEA8BFA881149104A104B10409F096CF14
:100D400088AD99ADAAADBBAD8CAF9DAFAEAFBFAF17
:100D500081E01C141D041E041F040CF080E08A8333
:100D60003FEF831A930AA30AB30A8CAA9DAAAEAADC
:100D7000BFAACCACDDACEEACFFACC701B6010E94A3
:100D8000960C6CA37DA38EA39FA3A701960160E0A0
:100D900074E284E799E40E941D0C6C8B7D8B8E8B32
:100DA0009F8B2A81211103CF90586C8B7D8B8E8B6A
:100DB0009F8BFDCECF92DF92EF92FF920F931F9306
:100DC000CF93DF93EC016A017B0120E030E0A901C1
:100DD000CB01B6010E94180C87FF04C0F7FAF0940B
:100DE000F7F8F094A7019601688D798D8A8D9B8D17
:100DF0000E94180C882309F446C0C88ED98EEA8E4A
:100E0000FB8E8E01005C1F4FA701960160E074E22B
:100E100084E799E40E941D0CF8016083718382834A
:100E200093838CA99DA9AEA9BFA9181619061A0605
:100E30001B064CF56C897D898E899F899B01AC01CD
:100E40000E947C0D6B017C016C8D7D8D8E8D9F8D44
:100E50009B01AC010E94AC0B9B01AC01C701B60128
:100E60000E941D0C0E948F0C6CAB7DAB8EAB9FABB8
:100E7000CE01DF91CF911F910F91FF90EF90DF9006
:100E8000CF900C948805DF91CF911F910F91FF9027
:100E9000EF90DF90CF900895CF92DF92EF92FF9284
:100EA000CF93DF93EC018CA19DA1AEA1BFA1892BB3
:100EB0008A2B8B2B09F453C03FB7F89480912C02F6
:100EC00090912D02A0912E02B0912F0226B5A89BE1
:100ED00005C02F3F19F00196A11DB11D3FBFBA2FCC
:100EE000A92F982F88276C017D01C20ED11CE11C0F
:100EF000F11C42E0CC0CDD1CEE1CFF1C4A95D1F726
:100F000088A599A5AAA5BBA5B701A601481B590BA1
:100F10006A0B7B0B8CA19DA1AEA1BFA148175907FD
:100F20006A077B07E0F08C859D85AE85BF852A81A9
:100F30002223B1F10196A11DB11D8C879D87AE873B
:100F4000BF874C855D856E857F85CE010E943E05FD
:100F5000C8A6D9A6EAA6FBA6CE010E94880520E075
:100F600030E0A9016C897D898E899F890E94180CC7
:100F700081111AC081E0C888D988EA88FB884C852D
:100F80005D856E857F85C416D506E606F70609F4ED
:100F900080E0DF91CF91FF90EF90DF90CF900895A8
:100FA0000197A109B109C9CF81E0F3CF0F931F9336
:100FB000FC01008911892289338904171507260746
:100FC000370741F0408B518B628B738B1F910F91D0
:100FD0000C9488051F910F9108954F925F926F9224
:100FE0007F928F929F92AF92BF92CF92DF92EF92B9
:100FF000FF92CF93DF93EC016A017B0120E030E0A8
:10100000A901CB01B6010E94180C87FF04C0F7FAB2
:10101000F094F7F8F0948C8C9D8CAE8CBF8CA7016B
:101020009601C501B4010E94180C882309F449C037
:101030006CA97DA98EA99FA90E94C70C2B013C0118
:10104000A7019601C501B4010E941D0C9B01AC01D2
:10105000C301B2010E947C0D0E948F0C6CAB7DAB72
:101060008EAB9FABA701960160E070E080E090E45A
:101070000E941D0C0E94EF0D26E53EE04DE25FE36D
:101080000E947C0D20E034E244E759E40E947C0D8C
:1010900068AF79AF8AAF9BAFCC8EDD8EEE8EFF8EC0
:1010A000CE01DF91CF91FF90EF90DF90CF90BF9076
:1010B000AF909F908F907F906F905F904F900C9427
:1010C0008805DF91CF91FF90EF90DF90CF90BF9098
:1010D000AF909F908F907F906F905F904F9008950A
:1010E000CF93DF93EC0184E092E09983888381E0E1
:1010F0008B831C861D861E861F86188A198A1A8A6B
:101100001B8A1C8A1D8A1E8A1F8A80E090E0A0E844
:10111000BFE3888F998FAA8FBB8F1C8E1D8E1E8E6A
:101120001F8E88A399A3AAA3BBA31CA21DA21EA2C3
:101130001FA221E030E03DA72CA72FEF2FA718A674
:1011400019A61AA61BA66C834D8324E02E8325E0E6
:101150002F831EA61CAA1DAA1EAA1FAA18AE19AE6E
:101160001AAE1BAE1CAE1DAE1EAE1FAEFE01E05C85
:10117000FF4F80839183A283B3831A8218861986D6
:101180001A861B86CE010E946E0340E050E060E8A4
:101190007FE3CE01DF91CF910C94ED071F920F9268
:1011A0000FB60F9211242F933F938F939F93AF937A
:1011B000BF938091310290913202A0913302B0919D
:1011C00034023091300223E0230F2D3758F5019679
:1011D000A11DB11D20933002809331029093320201
:1011E000A0933302B093340280912C0290912D028F
:1011F000A0912E02B0912F020196A11DB11D8093E6
:101200002C0290932D02A0932E02B0932F02BF9137
:10121000AF919F918F913F912F910F900FBE0F90A3
:101220001F90189526E8230F0296A11DB11DD2CF5D
:101230001F920F920FB60F9211240BB60F922F939D
:101240003F934F935F936F937F938F939F93AF934E
:10125000BF93EF93FF9385E392E00E94AE02FF916C
:10126000EF91BF91AF919F918F917F916F915F911E
:101270004F913F912F910F900BBE0F900FBE0F908B
:101280001F9018951F920F920FB60F9211240BB654
:101290000F922F938F939F93EF93FF93E0914502CB
:1012A000F09146028081E0914B02F0914C0282FD68
:1012B0001DC0908180914E028F5F8F7320914F02ED
:1012C000821741F0E0914E02F0E0EB5CFD4F958F0C
:1012D00080934E02FF91EF919F918F912F910F90EC
:1012E0000BBE0F900FBE0F901F9018958081F2CF0C
:1012F000E5E3F2E01382128288EE93E0A0E0B0E032
:1013000084839583A683B7838EE192E09183808363
:1013100085EC90E09587848784EC90E097878687BA
:1013200080EC90E0918B808B81EC90E0938B828BB2
:1013300082EC90E0958B848B86EC90E0978B868B8B
:10134000118E128E138E148E47E366E382EE93E0C5
:101350000E9470084DE36CE38EE993E00E947008F0
:1013600040E36EE28AE593E00E9470084CE16AE196
:1013700086E193E00E94700842E264E282ED92E02E
:101380000C947008789484B5826084BD84B58160C3
:1013900084BD85B5826085BD85B5816085BD809140
:1013A0006E00816080936E001092810080918100B8
:1013B00082608093810080918100816080938100B0
:1013C000809180008160809380008091B100846072
:1013D0008093B1008091B00081608093B0008091D3
:1013E0009100826080939100809191008160809350
:1013F0009100809190008160809390008091A10085
:1014000082608093A1008091A10081608093A100FF
:101410008091A00081608093A00080912101826072
:10142000809321018091210181608093210180912D
:10143000200181608093200180917A0084608093F4
:101440007A0080917A00826080937A0080917A009D
:10145000816080937A0080917A00806880937A001E
:101460001092C10086E30E948F0187E30E948F01E2
:1014700086E20E948F018CE30E948F018DE30E941F
:101480008F0188E30E948F018EE20E948F0180E32A
:101490000E948F018EE30E948F018AE10E948F01DA
:1014A0008CE10E948F0188E10E948F0184E20E94FA
:1014B0008F0182E20E948F018EE10E948F0161E024
:1014C00086E20E94AE0161E088E30E94AE0161E025
:1014D0008EE30E94AE0160E088E10E94AE0160E010
:1014E0008EE10E94AE01E0914502F091460282E059
:1014F0008083E0914102F09142021082E091430228
:10150000F09144028FEC808310924D02E0914902E9
:10151000F0914A0286E08083E0914702F091480210
:10152000808180618083E0914702F0914802808150
:1015300088608083E0914702F09148028081806852
:101540008083E0914702F091480280818F7D808303
:1015500040E050E06AEF74E482EE93E00E94DA0625
:1015600040E050E06AE775E482EE93E00E94ED0708
:1015700040E050E06AEF74E48EE993E00E94DA06FE
:1015800040E050E06AE775E48EE993E00E94ED07E1
:1015900040E050E06AEF74E48AE593E00E94DA06E6
:1015A00040E050E06AE775E48AE593E00E94ED07C9
:1015B00040E050E86BEB74E486E193E00E94DA06C9
:1015C00040E050E06AEF74E486E193E00E94ED07AA
:1015D00040E050E86BEB74E482ED92E00E94DA06A2
:1015E00040E050E06AEF74E482ED92E00E94ED0783
:1015F00082EE93E00E944C078EE993E00E944C0734
:101600008AE593E00E944C0786E193E00E944C0734
:1016100082ED92E00E944C0785E392E00E949802DE
:10162000892B99F085E392E00E94760240E050E039
:10163000BA01843731F0873659F440E659E060E06A
:1016400070E082EE93E00E94D6070E943D03D0CF67
:1016500040E050E0BA01893731F0883639F440E68D
:1016600059E060E070E08EE993E0EDCF40E050E0BB
:10167000BA01853731F08A3639F440E659E060E046
:1016800070E08AE593E0DFCF823779F448E253E2F5
:1016900060E070E086E193E00E94D60748ED5CEDE3
:1016A0006FEF7FEF82ED92E0CECF863671F640E0AD
:1016B00050E0BA0186E193E00E94D60740E050E096
:1016C000BA01F0CF052E97FB1EF400940E94790B0F
:1016D00057FD07D00E94890B07FC03D04EF40C94F1
:1016E000790B50954095309521953F4F4F4F5F4F67
:1016F000089590958095709561957F4F8F4F9F4F7E
:101700000895EE0FFF1F881F8BBF0790F691E02D05
:101710001994A1E21A2EAA1BBB1BFD010DC0AA1F22
:10172000BB1FEE1FFF1FA217B307E407F50720F04A
:10173000A21BB30BE40BF50B661F771F881F991FC5
:101740001A9469F760957095809590959B01AC010E
:10175000BD01CF0108955058BB27AA270E94C30B93
:101760000C943D0D0E942F0D38F00E94360D20F094
:1017700039F49F3F19F426F40C942C0D0EF4E095E7
:10178000E7FB0C94260DE92F0E944E0D58F3BA1773
:10179000620773078407950720F079F4A6F50C9487
:1017A000700D0EF4E0950B2EBA2FA02D0B01B90190
:1017B00090010C01CA01A0011124FF27591B99F0C7
:1017C000593F50F4503E68F11A16F040A22F232FD3
:1017D000342F4427585FF3CF469537952795A79523
:1017E000F0405395C9F77EF41F16BA0B620B730BCA
:1017F000840BBAF09150A1F0FF0FBB1F661F771F3B
:10180000881FC2F70EC0BA0F621F731F841F48F4EF
:10181000879577956795B795F7959E3F08F0B0CF78
:101820009395880F08F09927EE0F9795879508955F
:101830000E94020D08F481E008950E94310C0C947E
:101840003D0D0E94360D58F00E942F0D40F029F4F6
:101850005F3F29F00C94260D51110C94710D0C94DE
:101860002C0D0E944E0D68F39923B1F3552391F38B
:10187000951B550BBB27AA2762177307840738F0FF
:101880009F5F5F4F220F331F441FAA1FA9F335D05C
:101890000E2E3AF0E0E832D091505040E695001C10
:1018A000CAF72BD0FE2F29D0660F771F881FBB1FCA
:1018B000261737074807AB07B0E809F0BB0B802DA8
:1018C000BF01FF2793585F4F3AF09E3F510578F0D4
:1018D0000C94260D0C94710D5F3FE4F3983ED4F305
:1018E000869577956795B795F7959F5FC9F7880FA8
:1018F000911D9695879597F90895E1E0660F771FFA
:10190000881FBB1F621773078407BA0720F0621B8A
:10191000730B840BBA0BEE1F88F7E09508950E94B5
:10192000960C6894B1110C94710D08950E94560D97
:1019300088F09F5798F0B92F9927B751B0F0E1F090
:10194000660F771F881F991F1AF0BA95C9F714C040
:10195000B13091F00E94700DB1E008950C94700DBB
:10196000672F782F8827B85F39F0B93FCCF3869579
:1019700077956795B395D9F73EF4909580957095D6
:1019800061957F4F8F4F9F4F0895E89409C097FB53
:101990003EF490958095709561957F4F8F4F9F4F46
:1019A0009923A9F0F92F96E9BB279395F69587958A
:1019B00077956795B795F111F8CFFAF4BB0F11F44D
:1019C00060FF1BC06F5F7F4F8F4F9F4F16C08823F4
:1019D00011F096E911C0772321F09EE8872F762F2A
:1019E00005C0662371F096E8862F70E060E02AF06B
:1019F0009A95660F771F881FDAF7880F9695879557
:101A000097F90895990F0008550FAA0BE0E8FEEF2B
:101A100016161706E807F907C0F012161306E407B2
:101A2000F50798F0621B730B840B950B39F40A26AB
:101A300061F0232B242B252B21F408950A2609F489
:101A4000A140A6958FEF811D811D089597F99F678D
:101A500080E870E060E008959FEF80EC0895002436
:101A60000A941616170618060906089500240A9403
:101A700012161306140605060895092E0394000C89
:101A800011F4882352F0BB0F40F4BF2B11F460FF18
:101A900004C06F5F7F4F8F4F9F4F089557FD905841
:101AA000440F551F59F05F3F71F04795880F97FB22
:101AB000991F61F09F3F79F08795089512161306DC
:101AC0001406551FF2CF4695F1DF08C0161617060B
:101AD0001806991FF1CF8695710561050894089540
:101AE000E894BB2766277727CB0197F908950E94D2
:101AF000020D08F48FEF08950E948F0D0C943D0D98
:101B00000E942F0D38F00E94360D20F0952311F021
:101B10000C94260D0C942C0D11240C94710D0E9424
:101B20004E0D70F3959FC1F3950F50E0551F629FC6
:101B3000F001729FBB27F00DB11D639FAA27F00D26
:101B4000B11DAA1F649F6627B00DA11D661F829F4D
:101B50002227B00DA11D621F739FB00DA11D621F32
:101B6000839FA00D611D221F749F3327A00D611D4F
:101B7000231F849F600D211D822F762F6A2F112431
:101B80009F5750409AF0F1F088234AF0EE0FFF1F64
:101B9000BB1F661F771F881F91505040A9F79E3FBB
:101BA000510580F00C94260D0C94710D5F3FE4F309
:101BB000983ED4F3869577956795B795F795E79511
:101BC0009F5FC1F7FE2B880F911D9695879597F91A
:101BD000089519F416F40C942C0D0C942F0E0E94F9
:101BE000560DB8F39923C9F3B6F39F57550B87FFEA
:101BF0000E943D0E0024A0E640EA900180585695D0
:101C0000979528F4805C660F771F881F20F02617B1
:101C10003707480730F4621B730B840B20293129E6
:101C20004A2BA69517940794202531254A2758F763
:101C3000660F771F881F20F026173707480730F4F4
:101C4000620B730B840B200D311D411DA09581F794
:101C5000B901842F9158880F9695879508959F3FD5
:101C600031F0915020F4879577956795B795880F57
:101C7000911D9695879597F9089591505040660F5C
:0C1C8000771F881FD2F70895F894FFCF5B
:101C8C00000000009C036E0300053E05EA04B80446
:101C9C00970463044204EC03B90300000000D00273
:0C1CAC003A0267021D03980276028A02C9
:00000001FF
